:020000040800F2
:1000000000000420614500089D3F00089F3F000854
:10001000A13F0008A33F0008A53F00080000000022
:10002000000000000000000000000000A73F0008E2
:10003000A93F000800000000AB3F0008AD3F0008EA
:10004000B1450008B1450008B1450008B1450008B8
:10005000B1450008B1450008B1450008B1450008A8
:10006000B1450008B1450008B1450008B145000898
:10007000B1450008B1450008B1450008B145000888
:10008000B1450008B1450008B1450008B145000878
:10009000B1450008B1450008B1450008B145000868
:1000A000B1450008B1450008B1450008B145000858
:1000B000B1450008B1450008B1450008B145000848
:1000C000B1450008B1450008B1450008B145000838
:1000D000B1450008B1450008B1450008B145000828
:1000E000B1450008B1450008B1450008B145000818
:1000F000B1450008B1450008B1450008B145000808
:10010000B1450008B1450008B1450008B1450008F7
:10011000B1450008B1450008B1450008B1450008E7
:10012000B1450008B1450008B1450008B1450008D7
:10013000B1450008000000000000000000000000C1
:10014000000000000000000000000000B53F0008B3
:10015000B1450008B1450008B1450008B1450008A7
:10016000B1450008B1450008B1450008B145000897
:10017000B1450008B1450008000000000000000083
:10018000B1450008B1450008B1450008B145000877
:10019000B1450008B145000800000000B145000865
:1001A000000000000000000000000000B145000851
:1001B000B1450008B1450008000000000000000043
:1001C000000000000000000000000000000000002F
:1001D000000000000000000000000000B145000821
:1001E00010B5054C237833B9044B13B10448AFF371
:1001F00000800123237010BDF001002000000000EA
:10020000AC47000808B5034B1BB103490348AFF3E3
:10021000008008BD00000000F4010020AC47000889
:1002200053B94AB9002908BF00281CBF4FF0FF315D
:100230004FF0FF3000F072B9ADF1080C6DE904CE5B
:1002400000F006F8DDF804E0DDE9022304B07047B1
:100250002DE9F047089E04468846002B4BD18A4280
:10026000154667D9B2FA82F24AB1C2F1200701FA03
:1002700002F320FA07F7954047EA030894404FEA53
:10028000154E230CB8FBFEF71FFA85FC0EFB1788F2
:1002900043EA084307FB0CF1994209D9EB1807F12F
:1002A000FF3080F01B81994240F21881023F2B44BD
:1002B0005B1AA4B2B3FBFEF00EFB103344EA034416
:1002C00000FB0CFCA44509D92C1900F1FF3380F088
:1002D0000781A44540F2048102382C4440EA0740DB
:1002E000A4EB0C0400271EB1D4400023C6E9004350
:1002F0003946BDE8F0878B4209D9002E00F0EB802B
:100300000027C6E9000138463946BDE8F087B3FA50
:1003100083F7002F47D18B4202D3824200F2FA804A
:10032000841A61EB030301209846002EE0D0C6E951
:100330000048DDE702B9FFDEB2FA82F2002A40F09F
:100340008F80491B4FEA154E1FFA85F80127B1FB34
:10035000FEFC230C0EFB1C1143EA014308FB0CF1CD
:10036000994207D9EB180CF1FF3002D2994200F202
:10037000CD808446591AA3B2B1FBFEF00EFB1014D7
:1003800043EA044408FB00F8A04507D92C1900F102
:10039000FF3302D2A04500F2B6801846A4EB080451
:1003A00040EA0C409FE7C7F1200CBB4022FA0CFE4C
:1003B0004EEA030E01FA07F420FA0CF521FA0CF3C9
:1003C0004FEA1E482543B3FBF8F92C0C08FB193300
:1003D0001FFA8EFA44EA034309FB0AF49C4202FA2C
:1003E00007F200FA07F10BD91EEB030309F1FF3006
:1003F00080F087809C4240F28480A9F10209734416
:100400001B1BADB2B3FBF8F008FB103345EA034405
:1004100000FB0AFAA24508D91EEB040400F1FF33E1
:100420006BD2A24569D90238744440EA0940A0FB66
:100430000289A4EB0A044C45C2464B4654D351D022
:10044000002E69D0B1EB0A0564EB030404FA0CFC3E
:10045000FD40FC404CEA0505C6E90054002747E78B
:10046000C2F1200320FA03F7954001FA02F021FAC5
:1004700003F34FEA154E3843010CB3FBFEF71FFAA6
:1004800085F80EFB173341EA034107FB08F38B4263
:1004900004FA02F407D9691807F1FF3C2FD28B4206
:1004A0002DD9023F2944CB1A81B2B3FBFEF00EFBDB
:1004B000103341EA034100FB08F38B4207D9691866
:1004C00000F1FF3C17D28B4215D902382944C91AD2
:1004D00040EA07473BE73746304609E70746E7E685
:1004E0001846FBE64145ABD2B8EB020A69EB0E02B7
:1004F00001381346A4E76046E9E7184695E76746E2
:10050000D1E781467CE702382C4447E7ACF1020C86
:100510002B442FE7384608E73746E9E6704700BF27
:1005200010B504460E4B18784FF47A73B3FBF0F312
:100530000C4A1068B0FBF3F000F09AF868B90F2C81
:1005400001D901200AE0002221464FF0FF3000F0DF
:100550004FF8034B5C60002000E0012010BD00BF9D
:10056000000000201801002008B5032000F02EF83C
:100570000020FFF7D5FF03F0C3FC002008BD0000FA
:10058000034A1168034B1B780B441360704700BF8C
:100590002802002000000020014B1868704700BFAF
:1005A0002802002038B50446FFF7F6FF0546B4F1EF
:1005B000FF3F02D0044B1B781C44FFF7EDFF401BAC
:1005C000A042FAD338BD00BF000000200649CB6826
:1005D00023F4E0631B041B0C000200F4E0600343FF
:1005E000024A1A43CA60704700ED00E00000FA05B5
:1005F00030B4154BDB68C3F30223C3F10704042CAA
:1006000028BF04241D1D062D14D9033B4FF0FF35D0
:1006100005FA04F421EA0401994005FA03F322EAF9
:1006200003031943002807DB0901C9B2074B19541A
:1006300030BC70470023E9E700F00F000901C9B2A0
:10064000034B1954F4E700BF00ED00E000E400E0C4
:1006500014ED00E0002807DB00F01F024009012331
:100660009340024A42F82030704700BF00E100E0AA
:100670000138B0F1807F0AD2064B5860064AF0215B
:1006800082F823100020986007221A60704701202A
:10069000704700BF10E000E000ED00E000230F2BEA
:1006A00000F2D680F0B482B039E0072200E00022E8
:1006B000B2403A430234674E46F82420664A146832
:1006C000EA4302EA04064F6817F4803F01D045EA86
:1006D0000406614C2660646802EA04064F6817F459
:1006E000003F01D045EA04065B4C6660A46802EA5C
:1006F00004064F6817F4801F01D045EA0406564CE3
:10070000A660E46822404E6816F4001F01D045EA56
:100710000402514CE26001330F2B00F2968001225B
:100720009A400C6804EA0205AA42F4D14C68122CE3
:1007300018BF022C10D1DE08083650F826C003F08E
:100740000704A7000F24BC402CEA040C0C69BC4031
:1007500044EA0C0440F8264004685F000326BE40CB
:10076000F64306EA040C4C6804F00304BC4044EA77
:100770000C0404604C6804F1FF3C112C18BFBCF160
:10078000010F01D9122C11D1846806EA040CCC683F
:10079000BC4044EA0C048460446824EA020C4C68BF
:1007A000C4F300129A4042EA0C024260C26816404A
:1007B0008A68BA403243C2604A6812F0805FAAD0A9
:1007C000264A546C44F480445464526C02F48042CF
:1007D0000192019A9C08A61C1E4A52F8267003F04A
:1007E000030296000F22B24027EA02071C4A9042F9
:1007F0003FF45DAF02F5806290421AD002F580624C
:10080000904218D002F58062904216D002F58062C4
:10081000904214D002F58062904212D002F58062BC
:10082000904210D002F5806290423FF43EAF082221
:100830003EE701223CE702223AE7032238E704229E
:1008400036E7052234E7062232E702B0F0BC7047F3
:10085000704700BF00380140003C014000380240B2
:100860000000024012B9090481617047816170473C
:100870002DE9F04782B00768CA00521A930003447A
:100880005A6D1B6D9A4257D8B8469B1AC1EBC104EA
:10089000A2000244526C9A4200D31A460C46064605
:1008A00002F1030A4FEA9A0A16E009F1030A4FEA35
:1008B0009A0AE3001B1B9D003544A96C337C00930E
:1008C0001FFA89F3E2B2384602F052F9AB6C4B449E
:1008D000AB646B6D4B446B6508EB441303F510631D
:1008E0009B699BB2534513D3E3001B1B9A00324410
:1008F000516D136D99420BD253B15B1AC4EBC40115
:100900008A003244D2F844909945CED39946CCE738
:10091000E3001B1B98000644326D736D9A420FD89A
:1009200004F00F040121A140D7F8344824EA01045F
:10093000C7F83448002000E0012002B0BDE8F0878D
:100940000020FAE7F0B58BB0002800F08A8004465A
:1009500090F8BD33F3B1032384F8BD33206801F070
:10096000BDFE254655F8107B6E460FCD0FC60FCD48
:100970000FC695E8030086E80300231D0ECB38461A
:1009800001F0F2FD58B1022384F8BD330125284659
:100990000BB0F0BD80F8BC3303F0B8FBDBE70021FF
:1009A000206801F0A1FE002315E0D900C81A8200DA
:1009B0002244012082F83D0082F83C30A2F8423007
:1009C000002082F83F0050649064CA1A91002144CC
:1009D00008650133DBB26568AB42E6D3002315E05E
:1009E000D800C11A8A002244002182F8FD1182F841
:1009F000FC3182F8FF11C2F80412C2F80812C21AC0
:100A000090002044C0F810120133DBB29D42E7D8B9
:100A1000254655F8107B6E460FCD0FC60FCD0FC67D
:100A200095E8030086E80300231D0ECB384601F04D
:100A3000A1FE054660B9002384F83830012384F80C
:100A4000BD33636A012B08D0206802F024FA9EE7C8
:100A5000022384F8BD33012599E7204600F0CAFC43
:100A6000F2E7012593E790F8BC33012B0ED010B5C7
:100A70000446012380F8BC33006802F000FA2068C5
:100A800001F026FE002084F8BC0310BD0220704750
:100A900070B505460E460368196C03EB461303F563
:100AA0003064A3680269012A0FD0354A914261D1AE
:100AB00013F4004F5AD113F0200F01D02023A3606C
:100AC000F1B2284603F07AFB57E013F0080F14D078
:100AD0002C4A914205D913F4004F02D04FF4004341
:100AE000A360284603F062FB05F5717201212868B6
:100AF00002F02EFA0823A3603FE013F0200F2ED15E
:100B000013F0280F39D11F4A914202D913F4004F34
:100B100028D1F200921B93002B44D3F804222169C0
:100B2000C1F31201521AC3F81422D3F80412D3F8F5
:100B300008220A44C3F80822F1B2284603F03EFB1B
:100B4000DEB9C6EBC606B3002B44D3F81032A3B906
:100B500005F571720121286802F0FAF90DE02023F1
:100B6000A3600AE04FF40043A36006E04FF40043A3
:100B7000A36002E0F1B203F021FB002070BD00BFD2
:100B80000A31544F0A30544F38B5044603681D6C7F
:100B900003EB411101F530618A680369012B0DD027
:100BA000124B9D4214D0204603F000FB104B9D4297
:100BB00002D92369012B12D0002038BD0C4B9D4275
:100BC000F1D912F4004FEED04FF400438B60EAE706
:100BD00012F4004FE7D04FF400438B60E3E704F5D5
:100BE00071720121206802F0B3F9E5E70A31544F30
:100BF0000A30544F2DE9F84F04460568284602F0A4
:100C000087F908B1BDE8F88FA8460646206802F0CB
:100C10004EF90028F6D0206802F049F910F0020FD2
:100C200004D02268536903F002035361206802F084
:100C30003EF910F4002F40F092803746206802F011
:100C400036F910F4802F40F0DC80206802F02FF994
:100C50000028C0F24A81206802F029F910F4006FE0
:100C60000AD0D5F8083813F0010F40F058812268F7
:100C7000536903F400635361206802F018F910F01F
:100C8000006F15D02268536903F00063536194F834
:100C9000F433002B40F04781012184F8F4132368DA
:100CA0005B6DC3F38303C4F8F833204603F042FBC3
:100CB000206802F0FCF810F4805F40F03881206872
:100CC00002F0F5F810F4005F40F08A81206802F02D
:100CD000EEF810F0100F14D02268936923F010037F
:100CE00093612E6A06F00F08C6F34343022B00F00F
:100CF0009481062B00F0B2812268936943F01003BF
:100D00009361206802F0D3F810F0080F40F0BA8128
:100D1000206802F0CCF810F4801F40F0BC812068FD
:100D200002F0C5F810F4001F40F0BF81206802F007
:100D3000BEF810F0804F40F0C281206802F0B7F892
:100D400010F0040F3FF45EAF23685D6815F0040FE8
:100D500040F0BE81226853682B43536052E72068FD
:100D600002F0A9F88146374624E008EB4713012238
:100D7000C3F8082B39462046FFF78AFE29E039469A
:100D80002046FFF701FF08EB47130822C3F8082BA2
:100D900022E008EB47132022C3F8082B1AF4005F67
:100DA00005D008EB47134FF40052C3F8082B013766
:100DB0004FEA5909B9F1000F3FF440AF19F0010FA4
:100DC000F5D0F9B2206802F086F8824610F0010FE3
:100DD000CBD11AF0080FD2D11AF0100F04D008EBC3
:100DE00047131022C3F8082B1AF0200FD6D023691E
:100DF000012BCED104F571720121206802F0A8F810
:100E0000C7E7206802F05FF8814637462EE0FA0017
:100E1000D21B93002344596C9A6C0A449A6448E0AC
:100E20001AF0080F04D008EB47130822C3F808296A
:100E30001AF0100F04D008EB47131022C3F808294A
:100E40001AF0400F04D008EB47134022C3F80829DA
:100E50001AF0020F04D008EB47130222C3F8082946
:100E60001AF0800F3CD101374FEA5909B9F1000F50
:100E70003FF4EBAE19F0010FF5D05FFA87FB59464E
:100E8000206802F031F8824610F0010FC8D007F058
:100E90000F03012101FA03F2D8F8343823EA0203E0
:100EA000C8F8343808EB4713C3F8081923698B4294
:100EB000ADD05946204603F08DF92369012BAFD1FF
:100EC000002FADD1C7EBC702930023441B6D002B4D
:100ED000A6D104F571720121206802F039F89FE76C
:100EE00039462046FFF7C4FCBDE7D5F8043823F0A7
:100EF0000103C5F8043894F8F433012B08D02046D8
:100F000003F0A8F92268536903F000435361A2E695
:100F1000002184F8F413204603F00CFAF2E720468F
:100F200003F080F9A3E6204603F07CF9C0E605F55E
:100F30000069D9F8043023F00103C9F80430102106
:100F4000206801F0E9FB14E008EB46134FF67F310F
:100F5000C3F80819D3F8002922F40012C3F80029B5
:100F6000C3F8081BD3F8002B22F40012C3F8002B9F
:100F700001366368B342E7D8D9F81C3043F0011357
:100F8000C9F81C30236BEBB1D9F8843043F00B0364
:100F9000C9F88430D9F8443043F00B03C9F8443021
:100FA000D5F8003823F4FE63C5F8003804F57172F3
:100FB000217C206801F0CCFF2268536903F4805340
:100FC00053617CE6D9F8142042F22B031343C9F88D
:100FD0001430D9F8103043F00B03C9F81030DFE7B4
:100FE000206801F099FF206801F09EFC90B9002371
:100FF000E360266800F060FD227B0146304601F088
:10100000F1FA204603F0F7F82268536903F400531D
:1010100053615BE60323E360EBE747F6F0731E42A0
:101020003FF46AAE4FEAC80AAAEB08034FEA830905
:10103000A1443609C6F30A02D9F80812284601F07D
:101040009FFEC6F30A06D9F808323344C9F80832BD
:10105000D9F814321E44C9F814624DE6082204F58A
:101060007171284601F08CFEC6F30A164FEAC803D8
:10107000A3EB08018A002244D2F814321E44C2F8BD
:10108000146239E6204603F0B0F82268536903F091
:10109000080353613CE6F9B2204603F0E7F8226802
:1010A000536903F48013536139E6F9B2204603F023
:1010B000D7F82268536903F40013536136E62046DB
:1010C00003F0DAF82268536903F08043536134E691
:1010D000204603F0D7F83DE690F8BC33012B0DD045
:1010E00010B50446012380F8BC3380F8381000683E
:1010F00001F0B5FE002084F8BC0310BD022070474B
:10110000F8B511F0800F28D101F00F06F500AF1BE4
:10111000BC00274604F5FC74044404343E460644EF
:10112000002586F8FD5101F00F012170A260E370E7
:10113000627802B1E180022B1ED090F8BC33012B03
:101140001DD00546012380F8BC332146006801F01C
:10115000FBFB002085F8BC03F8BD01F00F06F5008D
:10116000AF1BBC0027463834044404343E460644D2
:10117000012586F83D50D6E700232371DDE70220E4
:10118000EAE738B511F0800F21D101F00F05EA0030
:10119000541BA3001C4603F5FC730344043325468B
:1011A0000544002285F8FD2101F00F01197090F827
:1011B000BC23012A1AD00446012280F8BC23194618
:1011C000006801F009FC002084F8BC0338BD01F080
:1011D0000F04E200151BAB001D46383303440433F3
:1011E0002C460444012284F83D20DDE70220EDE78F
:1011F00070B501F00F05EE00711B8C0004F5FC7456
:101200000444211D761BB4000444C4F80822C4F829
:1012100010320023C4F8143284F8FD3184F8FC51F4
:101220000369012B06D065B1DAB2006801F0B4FCA5
:10123000002070BDC5EBC506B4000444C4F80C2200
:10124000F1E7DAB2006801F00FFCF1E701F00F01FD
:10125000C1EBC1018B001844D0F81402704770B57F
:1012600001F00F05EE00711B8C0038340444211D81
:10127000761BB4000444A264236500236365012344
:1012800084F83D3084F83C500369012B06D05DB1F1
:10129000DAB2006801F080FC002070BDC5EBC50625
:1012A000B4000444E264F2E7DAB2006801F0DCFB67
:1012B000F2E738B501F00F0543689D4236D811F0CA
:1012C000800F20D1CA00541AA3001C4603F5FC73FA
:1012D0000344043322460244002182F8FD11012216
:1012E0009A701D7090F8BC23012A21D00446012277
:1012F00080F8BC231946006801F056FD7DB100203E
:1013000084F8BC0313E0EA00511B8B001946383304
:10131000034404330144012281F83D20DFE704F552
:101320007172217C206801F013FEE8E7012038BDCE
:101330000220FCE710B501F00F0443689C422CD852
:1013400011F0800F1DD1E3001A1B91000A4601F530
:10135000FC71014404310244002382F8FD31002372
:101360008B700C7090F8BC33012B18D0044601230D
:1013700080F8BC33006801F044FD002084F8BC0311
:101380000CE0E3001A1B91000A4638310144043195
:101390000244012382F83D30E1E7012010BD022024
:1013A000FCE730B40468606A29B10D46A36A00EB1B
:1013B000134000230CE040EA0240A06212E003F177
:1013C000400104EB8101496800EB11400133DBB2BD
:1013D000691E8B42F3D340EA024005F13F0104EB62
:1013E00081014860002030BC7047036859620020CA
:1013F00070470000024603680121C0F8FC1300207A
:1014000082F8F4039A6942F000629A61596D024AC7
:101410000A435A65704700BF03000010024A136870
:1014200043F48073136070470070004010B582B0C1
:101430001B4B1A6C42F080521A641B6C03F08053F1
:101440000193019B174A136843F480331360FFF73D
:10145000A3F80446134B5B6813F4803F08D1FFF7F1
:101460009BF8001BB0F57A7FF4D9032002B010BDC1
:101470000C4A136843F400331360FFF78DF80446F9
:10148000084B5B6813F4003F07D1FFF785F8001B9A
:10149000B0F57A7FF4D90320E8E70020E6E700BF43
:1014A0000038024000700040002800F0DB8170B579
:1014B00082B00446036813F0010F29D0A24B9B6849
:1014C00003F00C03042B1AD09F4B9B6803F00C0312
:1014D000082B0FD06368B3F5803F40D0002B54D168
:1014E000994B1A6822F480321A601A6822F480221A
:1014F0001A6039E0944B5B6813F4800FEAD0924B8A
:101500001B6813F4003F03D06368002B00F0AC812C
:10151000236813F0020F75D08B4B9B6813F00C0FF0
:101520005ED0894B9B6803F00C03082B53D0E36813
:10153000002B00F08A80844A136843F00103136093
:10154000FFF72AF80546804B1B6813F0020F73D192
:10155000FFF722F8401B0228F5D9032087E17A4AD9
:10156000136843F48033136063682BB3FFF714F8F8
:101570000546754B1B6813F4003FC9D1FFF70CF803
:10158000401B6428F5D9032071E1B3F5A02F09D0E1
:101590006D4B1A6822F480321A601A6822F4802295
:1015A0001A60E1E7684B1A6842F480221A601A68F0
:1015B00042F480321A60D7E7FEF7EEFF0546624B31
:1015C0001B6813F4003FA3D0FEF7E6FF401B64281E
:1015D000F5D903204BE15C4B5B6813F4800FA6D177
:1015E000594B1B6813F0020F04D0E368012B01D0A4
:1015F00001203CE1544A136823F0F803216943EACF
:10160000C1031360236813F0080F46D0636983B3E6
:101610004D4A536F43F001035367FEF7BDFF054684
:10162000494B5B6F13F0020F37D1FEF7B5FF401B3C
:101630000228F5D903201AE1434A136823F0F8037E
:10164000216943EAC1031360DCE73F4A136823F0D2
:1016500001031360FEF7A0FF05463B4B1B6813F028
:10166000020FCFD0FEF798FF401B0228F5D90320C8
:10167000FDE0354A536F23F001035367FEF78CFFFB
:101680000546314B5B6F13F0020F06D0FEF784FF67
:10169000401B0228F5D90320E9E0236813F0040F6A
:1016A0007ED0294B1B6C13F0805F1ED1264B1A6C29
:1016B00042F080521A641B6C03F080530193019B2B
:1016C0000125224B1B6813F4807F10D0A368012BE7
:1016D00021D0002B3CD11C4B1A6F22F001021A675B
:1016E0001A6F22F004021A671AE00025E9E7174A88
:1016F000136843F480731360FEF74EFF0646134BE6
:101700001B6813F4807FE1D1FEF746FF801B64283D
:10171000F5D90320ABE00C4A136F43F001031367C4
:10172000A3685BB3FEF738FF0646074B1B6F13F049
:10173000020F34D1FEF730FF801B41F2883398420C
:10174000F3D9032093E000BF00380240007000404E
:10175000052B09D0484B1A6F22F001021A671A6F45
:1017600022F004021A67DBE7434B1A6F42F00402CF
:101770001A671A6F42F001021A67D1E7FEF70CFFF1
:1017800006463D4B1B6F13F0020F08D0FEF704FF17
:10179000801B41F288339842F3D9032067E0F5B902
:1017A000A369002B62D0344A926802F00C02082A26
:1017B0005FD0022B19D0304A136823F08073136076
:1017C000FEF7EAFE04462C4B1B6813F0007F47D05F
:1017D000FEF7E2FE001B0228F5D9032047E0264A67
:1017E000136C23F080531364DAE7234A136823F061
:1017F00080731360FEF7D0FE05461F4B1B6813F085
:10180000007F06D0FEF7C8FE401B0228F5D9032052
:101810002DE0E369226A1343626A43EA8213A26AF3
:101820005208013A43EA0243E26A43EA026343F0A0
:101830000053114A5360136843F080731360FEF73E
:10184000ABFE04460C4B1B6813F0007F06D1FEF77D
:10185000A3FE001B0228F5D9032008E0002006E0C3
:10186000002004E001207047012000E0002002B0C9
:1018700070BD0120FBE700BF00380240324B9B687F
:1018800003F00C03042B5CD0082B01D02F487047C9
:101890002DE9F04B2C4B5A6802F03F025B6813F4C1
:1018A000800F2BD0284B5B68C3F388131E4600279C
:1018B0005C010025E41A65EB0705A90141EA946182
:1018C000A001001B61EB0501CB0043EA5073C4008B
:1018D000A01943EB07014B0243EAD05344022046D0
:1018E00019460023FEF79CFC174B5B68C3F30143CA
:1018F00001335B00B0FBF3F0BDE8F08B124B5B688B
:10190000C3F388131E4600275C010025E41A65EB2B
:101910000705A90141EA9461A001001B61EB0501E3
:10192000CB0043EA5073C400A01943EB07018B02BC
:1019300043EA90538402204619460023FEF770FCC8
:10194000D2E70348704700BF003802400024F4008B
:1019500000127A00002800F0A28070B50446524BB5
:101960001B6803F00F038B420CD24F4A136823F01D
:101970000F030B431360136803F00F038B4201D076
:10198000012070BD236813F0020F17D013F0040F6D
:1019900004D0464A936843F4E0539360236813F0FD
:1019A000080F04D0414A936843F4604393603F4A70
:1019B000936823F0F003A068034393600D46236807
:1019C00013F0010F31D06368012B20D0022B25D0FA
:1019D000364A126812F0020F63D034498A6822F046
:1019E000030213438B60FEF7D7FD06462F4B9B681F
:1019F00003F00C036268B3EB820F16D0FEF7CCFD48
:101A0000801B41F288339842F0D90320B9E7274A76
:101A1000126812F4003FE0D10120B2E7234A1268B5
:101A200012F0007FD9D10120ABE71F4B1B6803F0F8
:101A30000F03AB420CD91C4A136823F00F032B434E
:101A40001360136803F00F03AB4201D0012098E745
:101A5000236813F0040F06D0144A936823F4E0536C
:101A6000E1680B439360236813F0080F07D00F4A17
:101A7000936823F46043216943EAC1039360FFF74D
:101A8000FDFE0A4B9B68C3F30313094AD35CD8409D
:101A9000084B18600020FEF743FD002071E701208D
:101AA000704701206DE700BF003C02400038024053
:101AB000C447000818010020014B1868704700BF98
:101AC0001801002008B5FFF7F7FF044B9B68C3F32C
:101AD0008223034AD35CD84008BD00BF00380240CF
:101AE000D447000808B5FFF7E7FF044B9B68C3F332
:101AF0004233034AD35CD84008BD00BF00380240DF
:101B0000D4470008F0B583B00446036813F0010F12
:101B10000CD0A44B9A6822F400029A609A68C16AB9
:101B20000A439A60C36AC3B1002600E00026236816
:101B300013F4002F15D09B4AD2F88C3023F44013B5
:101B4000616B0B43C2F88C30636BB3F5801F06D01A
:101B5000002B00F00581002504E00126E7E70126BF
:101B6000F6E70025236813F4801F0FD08D4AD2F8C2
:101B70008C3023F44003A16B0B43C2F88C30A36B71
:101B8000B3F5800F00F0EE8003B90125236813F050
:101B9000200F40F0E980236813F0100F0CD0814B28
:101BA000D3F88C2022F08072C3F88C20D3F88C20DC
:101BB000216B0A43C3F88C20236813F4804F08D0AC
:101BC000784AD2F8903023F44033E16D0B43C2F8E9
:101BD0009030236813F4004F08D0724AD2F8903046
:101BE00023F44023216E0B43C2F89030236813F492
:101BF000803F08D06B4AD2F8903023F44013616ED6
:101C00000B43C2F89030236813F0400F08D0654AA8
:101C1000D2F8903023F00303E16B0B43C2F890300D
:101C2000236813F0800F08D05E4AD2F8903023F07A
:101C30000C03216C0B43C2F89030236813F4807FAF
:101C400008D0584AD2F8903023F03003616C0B432F
:101C5000C2F89030236813F4007F08D0514AD2F8BC
:101C6000903023F0C003A16C0B43C2F8903023687E
:101C700013F4806F08D04B4AD2F8903023F44073AD
:101C8000E16C0B43C2F89030236813F4006F08D066
:101C9000444AD2F8903023F44063216D0B43C2F8DC
:101CA0009030236813F4805F08D03E4AD2F8903019
:101CB00023F44053616D0B43C2F89030236813F452
:101CC000005F08D0374AD2F8903023F44043A16D2A
:101CD0000B43C2F89030236813F4001F0DD0314A33
:101CE000D2F8903023F00063616F0B43C2F890305C
:101CF000636FB3F1006F00F0A180236813F4802FAD
:101D000008D0284AD2F8903023F04073E16E0B439C
:101D1000C2F89030236813F4000F08D0214AD2F89B
:101D2000903023F08053A16F0B43C2F890302368AA
:101D300013F0806F08D01B4AD2F8903023F0005384
:101D4000E16F0B43C2F89030002E79D12368B3F1D4
:101D5000007F75D0002D40F0E380002003B0F0BD7F
:101D60000125FFE601260FE70E4B1A6C42F0805268
:101D70001A641B6C03F080530193019B0A4A136899
:101D800043F480731360FEF707FC0746064B1B689D
:101D900013F4807F0AD1FEF7FFFBC01B6428F5D93E
:101DA0000320DBE700380240007000408D4B1B6FC2
:101DB00013F4407315D0A26A02F440729A4210D014
:101DC000884B1A6F22F44072196F41F48031196701
:101DD000196F21F4803119671A671B6F13F0010F17
:101DE00012D1A36A03F44072B2F5407F1DD07D4A40
:101DF000936823F4F81393607A490B6FA26AC2F3D5
:101E00000B0213430B67C6E6FEF7C6FB0746754B8E
:101E10001B6F13F0020FE4D1FEF7BEFBC01B41F2B3
:101E200088339842F3D9032098E76E48826822F4F9
:101E3000F8126D4919400A438260DDE701255CE72D
:101E4000684A136823F080631360FEF7A5FB06461B
:101E5000644B1B6813F0006F06D0FEF79DFB801BE0
:101E60006428F5D9032079E7236813F0010F0ED019
:101E7000E36A63B95B4AD2F88430616803F0706347
:101E800043EA8113A16843EA0173C2F884302368EE
:101E900013F4002F03D0626BB2F5801F06D013F449
:101EA000801F19D0A36BB3F5800F15D14D4AD2F81E
:101EB00084106068E3681B0643EA801301F0E04188
:101EC0000B43C2F88430D2F88C3023F01F03E16951
:101ED00001390B43C2F88C30236813F0007F0AD01D
:101EE0006268E3681B0643EA8213A26843EA02734E
:101EF0003C4AC2F884303B4A136843F08063136065
:101F0000FEF74AFB0646374B1B6813F0006F7FF461
:101F100021AFFEF741FB801B6428F4D903201DE7A5
:101F2000304A136823F080531360FEF735FB0546F3
:101F30002C4B1B6813F0005F06D0FEF72DFB401BF7
:101F40006428F5D9032009E7236813F4002F01D092
:101F5000626B22B113F4801F18D0A36BB3B9214A6E
:101F6000D2F88830216903F4403343EA8113616970
:101F700043EA0163C2F88830D2F88C3023F4F85376
:101F8000216A013943EA0123C2F88C30236813F433
:101F9000001F03D0636FB3F1006F13D0114A1368B1
:101FA00043F080531360FEF7F7FA04460D4B1B68AD
:101FB00013F0005F14D1FEF7EFFA001B6428F5D987
:101FC0000320CBE60749D1F888202069A3691B04C8
:101FD00043EA801302F070621343C1F88830DDE7F2
:101FE0000020BBE600380240FFFCFF0F10B504469E
:101FF00083680269134342691343C269134301684A
:102000000868994A024013430B602268536823F41E
:102010004053E1680B435360A269236A1A43216865
:102020008B6823F4306313438B6023688F4A934299
:1020300018D08F4A934228D08E4A93423DD08E4A80
:10204000934250D08D4A934262D08D4A934277D0CA
:102050008C4A934200F08C808B4A934200F0A0801F
:102060001023B6E0894BD3F8903003F00303032B21
:1020700009D8DFE803F00204AD060123A9E0042338
:10208000A7E00823A5E01023A3E0804BD3F890300D
:1020900003F00C030C2B0ED8DFE803F0070D0D0D39
:1020A000090D0D0DA90D0D0D0B00002391E004236A
:1020B0008FE008238DE010238BE0744BD3F8903031
:1020C00003F03003102B0AD006D9202B00F09180AA
:1020D000302B06D108237CE01BB9002379E00423D0
:1020E00077E0102375E0694BD3F8903003F0C0031C
:1020F000402B09D005D9802B7DD0C02B06D10823D9
:1021000067E01BB9002364E0042362E0102360E071
:102110005E4BD3F8903003F44073B3F5807F0BD05F
:1021200007D9B3F5007F68D0B3F5407F06D1082307
:102130004FE01BB900234CE004234AE0102348E0A1
:10214000524BD3F8903003F44063B3F5806F0BD05B
:1021500007D9B3F5006F52D0B3F5406F06D108230D
:1021600037E01BB9012334E0042332E0102330E0D0
:10217000464BD3F8903003F44053B3F5805F0BD057
:1021800007D9B3F5005F3CD0B3F5405F06D1082313
:102190001FE01BB900231CE004231AE0102318E001
:1021A0003A4BD3F8903003F44043B3F5804F0BD053
:1021B00007D9B3F5004F26D0B3F5404F06D1082319
:1021C00007E01BB9002304E0042302E0102300E031
:1021D0000223E269B2F5004F17D0082B00F2B3805A
:1021E000DFE803F0768B95B19EB1B1B1A800022370
:1021F000EFE70223EDE70223EBE70223E9E70223FF
:10220000E7E70223E5E70223E3E7082B5DD8DFE8F1
:1022100003F0051F3F5C485C5C5C5300FFF752FC19
:102220006268530803EB4003B3FBF2F39BB2002058
:10223000A3F110014FF6EF72914200F287809AB23B
:1022400022F00F02C3F3420313432268D36050E02D
:10225000FFF748FC6268530803EB4003B3FBF2F35B
:102260009BB20020E4E700BFF369FFEF00100140DC
:102270000044004000480040004C00400050004036
:102280000014014000780040007C0040003802400B
:102290006268304B03EB5203B3FBF2F39BB20020B6
:1022A000C6E7FFF7EBFA6268530803EB4003B3FBA2
:1022B000F2F39BB20020BBE76268530803F580335A
:1022C000B3FBF2F39BB20020B2E701200023AFE79B
:1022D000FFF7F8FB626800EB5203B3FBF2F39BB22B
:1022E0000020A3F110014FF6EF72914230D822681E
:1022F000D36000232366636610BDFFF7F3FB6268BB
:1023000000EB5203B3FBF2F39BB20020E9E76268F3
:10231000114B03EB5203B3FBF2F39BB20020E0E757
:10232000FFF7ACFA626800EB5203B3FBF2F39BB227
:102330000020D6E76268530803F50043B3FBF2F3CD
:102340009BB20020CDE701200023CAE70120D0E79F
:102350000120CEE70048E8010024F400436A13F0AE
:10236000010F06D00268536823F40033816A0B43DF
:102370005360436A13F0020F06D00268536823F4D7
:102380008033C16A0B435360436A13F0040F06D0D5
:102390000268536823F48023016B0B435360436A44
:1023A00013F0080F06D00268536823F40043416B12
:1023B0000B435360436A13F0100F06D00268936812
:1023C00023F48053816B0B439360436A13F0200F17
:1023D00006D00268936823F40053C16B0B439360EB
:1023E000436A13F0400F0AD00268536823F4801345
:1023F000016C0B435360036CB3F5801F0BD0436A31
:1024000013F0800F06D00268536823F40023816C18
:102410000B43536070470268536823F4C003416C58
:102420000B435360EBE72DE9F04105460F46164696
:102430009846069C2B68DB6937EA03030CBF01232F
:102440000023B3421CD1B4F1FF3FF3D0FEF7A4F850
:10245000A0EB0800A04201D8002CEBD12A68136839
:1024600023F4D07313602A68936823F00103936008
:1024700020236B67AB67002385F87030032000E0F2
:102480000020BDE8F08110B582B004460023C36788
:10249000FEF782F82268126812F0080F07D1202395
:1024A0006367A367002084F8700002B010BD6FF06E
:1024B0007E430093034600224FF400112046FFF7AD
:1024C000B2FF0028EBD00320EFE768B310B5044655
:1024D000436F03B3242363672268136823F0010367
:1024E00013602046FFF782FD012813D0636ABBB951
:1024F0002268536823F4904353602268936823F062
:102500002A0393602268136843F001031360204696
:10251000FFF7B9FF10BD80F8703001F009FDD9E771
:102520002046FFF71BFFE3E701207047002301333C
:102530000C4A934211D80269002AF8DA036943F081
:102540000103036100230133064A934207D802695D
:1025500012F0010FF7D100207047032070470320CD
:10256000704700BF400D030084B010B5044603A8B7
:1025700080E80E00089B012B1DD1A36B23F4803350
:10258000A363E268164B1340E360E36823F440134F
:10259000E3600F9B012B09D02046FFF7C7FF069B86
:1025A000012B14D0BDE8104004B07047E36843F439
:1025B0008013E360F0E7E36843F04003E360204604
:1025C000FFF7B4FFA36B43F48033A363E7E7A3688B
:1025D00043F00603A360A36843F02003A360E1E790
:1025E000BFFFBDFF032A0AD00921C26822F470523E
:1025F000C260C36843EA8123C36000207047274B51
:102600000B44274A934239D9264B0B44264A93421E
:1026100036D9264B0B44264A934233D9254B0B44DB
:1026200002F5C332A03293422ED9234B0B44234AE6
:1026300093422BD9224B0B4402F5922202F5787279
:10264000934225D91F4B0B4402F5C32202F5207299
:1026500093421FD91C4B0B4402F5B71202F5587276
:10266000934219D9194B0B4402F5122202F5F86274
:10267000934201D90621B8E70721B6E70F21B4E755
:102680000E21B2E70D21B0E70C21AEE70B21ACE73C
:102690000A21AAE70921A8E70821A6E7405327FF56
:1026A000FF340C00401E1BFF3F420F0000DC0BFFFD
:1026B0007F4F1200808CF9FE60B6E5FE5FE31600E6
:1026C00000D3CEFEC05BB3FE00CA91FEE05459FEBB
:1026D000836843F00103836000207047836823F020
:1026E000010383600020704708B5C36823F0C0432E
:1026F000C360012909D069B9C36843F08043C3604E
:102700003220FDF74FFF002008BDC36843F000539F
:10271000C360F5E70120F7E7890141F0200101617D
:1027200000230133054A934205D8026912F0200FB5
:10273000F7D1002070470320704700BF400D030011
:102740001023036100230133054A934205D802692F
:1027500012F0100FF7D1002070470320704700BF20
:10276000400D0300D0F800381943C0F800180020CD
:102770007047000084B02DE9F041044607A880E8C6
:102780000E002546002306E003F1400204EB82021E
:102790000021516001330E2BF6D9119B03BBA36BB3
:1027A00023F40013A363236843F0400323602368EA
:1027B00043F0800323600023C4F8003E04F5006664
:1027C000D4F80038C4F800380C9B012B0DD0032B33
:1027D0001CD1099BABB900212046FFF7C3FF19E0CC
:1027E000A36B43F40013A363E5E7099B23B900211E
:1027F0002046FFF7B7FF0DE001212046FFF7B2FFAB
:1028000008E001212046FFF7ADFF03E00321204649
:10281000FFF7A8FF10212046FFF77EFF804608B192
:102820004FF001082046FFF78BFF08B14FF0010879
:10283000002333617361F3610AE0C3B94FF00060B4
:10284000C2F8000900220A614FF67F328A60013324
:102850000799994210D905EB431202F51061D2F89D
:1028600000090028E9DB0020C2F80009EAE74FF080
:102870009040C2F80009E5E700230AE0BBB14FF041
:102880009047C2F8007B002202614FF67F328260DF
:102890000133994210D905EB431202F53060D2F8AA
:1028A000007B002FEADB0027C2F8007BEBE74FF04C
:1028B0000067C2F8007BE6E7336923F48073336175
:1028C0000A9B012B1BD00022A2616FF08042626143
:1028D0001BB9A36943F01003A361A2690E4B134314
:1028E000A3610D9B1BB1A36943F00803A361119B76
:1028F000012B0BD04046BDE8F04104B07047074AB9
:102900003263316B064A0A433263DCE7A269054B46
:102910001343A361EEE700BF00383C800001800054
:102920000300010004000040D0F8083813F006034B
:1029300007D0062B18BF022B01D0002070470320C0
:10294000704700207047000070B40B784A78012A65
:1029500020D0D0F81C2803F00F060124B44042EA2E
:102960000442C0F81C2800EB4310D0F8003B13F4DD
:10297000004F0CD1D0F8002B8B68C3F30A03C97841
:1029800043EA81431343134A1A43C0F8002B002043
:1029900070BC7047D0F81C4803F00F06B24092B2EA
:1029A0002243C0F81C2800EB4310D0F8002912F491
:1029B000004FECD1D0F800498A68C2F30A02C97806
:1029C00042EA814242EA83532343024A1A43C0F84F
:1029D0000029DCE70080001070B40B784A78012AE7
:1029E0001FD0D0F83C5803F00F06012404FA06F675
:1029F00025EA0645C0F83C58D0F81C58097801F083
:102A00000F018C4025EA0444C0F81C4800EB431039
:102A1000D0F8002B124B1340C0F8003B002070BCD4
:102A20007047D0F83C6803F00F0402FA04F4A4B233
:102A300026EA0404C0F83C48D0F81C48097801F0A4
:102A40000F018A4092B224EA0202C0F81C2800EB6F
:102A50004310D0F80039034A1A40C0F80029DDE7D6
:102A60000078F3EF007833EC70B40B784C78012CDD
:102A700024D000EB431000F530631D693A4C2C4024
:102A80001C611D69394C2C401C614C690CB18C686F
:102A90004C611C6944F400241C611C698D68C5F3F9
:102AA00012052C431C61012A59D0D0F8003B43F099
:102AB0000443C0F8003B002070BC70474C6954BB15
:102AC00000EB4314D4F81069284D3540C4F8105970
:102AD000D4F8105945F40025C4F81059D4F81069F9
:102AE000214D3540C4F81059012A30D04A694AB105
:102AF000D0F83428097801F00F040121A1400A43DD
:102B0000C0F8342800EB4310D0F8002942F004420A
:102B1000C0F80029CFE700EB431404F510642669E0
:102B2000114D354025612669104D354025614E69AE
:102B30008D68AE4200D94D61256945F400252561B7
:102B400025694E69C6F3120635432561CCE70A694B
:102B5000002AD7D000EB4311C1F81429D2E7CA6884
:102B6000002AA2D05A61A0E70000F8FFFFFF07E0AB
:102B700070B49DF80C4064B903339D0807E000EB86
:102B8000023303F5805351F8046B1E600134AC42EC
:102B9000F5D3002070BC7047F0B583B00B784C784B
:102BA000012C29D000EB431303F530642669714DE5
:102BB000354025612669704D354025614D69002DF0
:102BC00040F0AA8025698E68C6F312063543256158
:102BD000256945F400252561012A00F0B280CA78F4
:102BE000012A00F0B480D3F8002B42F00442C3F86D
:102BF000002B002003B0F0BD4C69002C3BD100EB52
:102C00004314D4F810695C4D3540C4F81059D4F819
:102C1000105945F40025C4F81059D4F81069554DE1
:102C20003540C4F81059012A57D0CC78012C0BD06C
:102C30004C694CB1D0F834480D7805F00F060125E9
:102C4000B5402C43C0F83448CC78012C4DD000EB73
:102C50004313D3F8004944F00444C3F80049CB7847
:102C6000012BC6D114460B46C9681A789B8A00947A
:102C7000FFF77EFFBDE700EB4314D4F810693D4D2C
:102C80003540C4F81059D4F810693B4D3540C4F8AC
:102C90001059D4F810694D698F683D44013DB5FB6A
:102CA000F7F5364F07EAC5453543C4F81059D4F84F
:102CB00010594E69C6F312063543C4F8105904F58D
:102CC0001064CD78012DAED1256925F0C045256170
:102CD000256945F000552561A5E70C69002CB3D0A6
:102CE00000EB4315C5F81449AEE7D0F8084814F4D2
:102CF000807F08D100EB4315D5F8004944F000541B
:102D0000C5F80049A3E700EB4315D5F8004944F0A6
:102D10008054C5F800499AE78E683544013DB5FBFB
:102D2000F6F52669154F07EAC5473E432661276930
:102D30008E68ADB206FB05F5C5F312053D4325616E
:102D40004AE7CA68002A3FF44AAF626147E7D0F811
:102D5000082812F4807F06D1D3F8002B42F00052ED
:102D6000C3F8002B3FE7D3F8002B42F08052C3F8A2
:102D7000002B38E70000F8FFFFFF07E00000F81F16
:102D800003329208002393420CD210B400F5805411
:102D9000246841F8044B01339342F7D308465DF8A9
:102DA000044B7047084670470B784A78012A14D0C4
:102DB00000EB4310D0F8002B002A06DB2BB1D0F833
:102DC000003B23F08043C0F8003BD0F8003B43F4C5
:102DD0000013C0F8003B0020704700EB4310D0F810
:102DE0000029002A06DB2BB1D0F8003923F08043FC
:102DF000C0F80039D0F8003943F40013C0F80039A6
:102E0000E9E70B784A78012A0ED000EB4310D0F89E
:102E1000003B23F40013C0F8003BCB78023BDBB24D
:102E2000012B15D90020704700EB4310D0F8003972
:102E300023F40013C0F80039CB78023BDBB2012B3E
:102E4000F0D8D0F8003943F08053C0F80039E9E7F2
:102E5000D0F8003B43F08053C0F8003BE2E7D0F8E5
:102E6000003823F4FE63C0F80038D0F800380901B8
:102E700001F4FE610B43C0F800380020704708B52C
:102E8000D0F8043823F00203C0F804380320FDF71B
:102E900089FB002008BD08B5D0F8043843F00203D0
:102EA000C0F804380320FDF77DFB002008BD42690F
:102EB000806910407047D0F8183800F50060C0698C
:102EC0001840000C7047D0F8183800F50060C06951
:102ED000184080B2704700EB4111D1F8082B00F583
:102EE000006040691040704710B4D0F81048D0F826
:102EF000343801F00F02D340DB01DBB2234300EB97
:102F0000411000F51060806818405DF8044B704770
:102F1000406900F001007047D0F800290B4B1340C6
:102F2000C0F8003900F500639A6802F00602042A2E
:102F300005D05A6842F480725A6000207047D0F879
:102F4000002942F00302C0F80029F2E700F8FFFF71
:102F500010B4046C154B9C4203D9D0F8003B002BF5
:102F600016DB0024C0F8104BD0F8104B44F40024BA
:102F7000C0F8104BD0F8104B44F01804C0F8104BB8
:102F8000D0F8104B44F0C044C0F8104B012903D0D6
:102F900000205DF8044B7047C0F8142BD0F8003BBC
:102FA00043F08023C0F8003BF2E700BF0A30544FE3
:102FB00010B5D0F89042D0F894325BB194F800028A
:102FC000FF2807D09B6894F8012221469847FF23E9
:102FD00084F80032002010BD43230380004870476E
:102FE0000800002043230380004870474C00002065
:102FF0004323038000487047900000200A23038089
:1030000000487047D400002038B50446D0F89052EC
:1030100001F089F9C5F80C02D4F890324BB1D4F81C
:103020009432DB6805F50371D5F804029847002057
:1030300038BD0220FCE770B5D0F89022D0F8985245
:10304000FAB101EB8104A3000344DB694BB1C1EB8E
:10305000C106B40025446D6CB3FBF5F405FB1433D5
:103060001BB10020C2F8140270BD01EB8102930075
:1030700003440024DC612346224601F0C9F92046BE
:10308000F2E70220F0E770B582B005460C46D0F8B2
:10309000906200238DF80730ADF804300B7813F000
:1030A000600227D0202A56D1CA883AB9D0F8943283
:1030B0009B6800224878984700204FE013F0800F6B
:1030C0000CD0D0F894329B68314660789847E288FB
:1030D0003146284600F0A3FD00203FE04B7886F8FB
:1030E00000328B7986F80132CA88314600F0ACFD97
:1030F000002033E04B780A2B14D00B2B21D01BB1CE
:1031000000F06BFA022029E090F87432032B05D10D
:10311000022201A900F083FD00201FE000F05DFA0B
:1031200002201BE090F87432032B06D101220DF12E
:10313000070100F074FD002010E000F04EFA0220BC
:103140000CE090F87432032B01D1002006E000F06F
:1031500044FA022002E000F040FA022002B070BD02
:1031600038B50446812101F033F90025E5620121DB
:10317000204601F02DF9C4F858518221204601F073
:1031800027F92564D4F890324BB1D4F894325B68B7
:103190009847D4F8900201F03FFAC4F8905200200A
:1031A00038BD38B50446037CA3BB4FF4007302223C
:1031B000812101F002F90125E5624FF4007302223A
:1031C0002946204601F0F9F8C4F858510823032293
:1031D0008221204601F0F1F8012323644FF40770A7
:1031E00001F012FA0546C4F8900268B3D4F894329C
:1031F0001B6898470023C5F81432C5F81832237CA1
:10320000C3B14023D5F804220121204601F008F97A
:10321000002038BD40230222812101F0CEF8012593
:10322000E562402302222946204601F0C6F8C4F890
:103230005851CBE74FF40073D5F804220121204602
:1032400001F0EEF80020E4E70120E2E719B1C0F850
:1032500094120020704702207047D0F89032C3F8D3
:103260000812C3F8102200207047D0F89032C3F83B
:10327000041200207047D0F890229AB108B5037C60
:103280003BB14023D2F80422012101F0C9F800200B
:1032900008BD4FF40073D2F80422012101F0C0F8F8
:1032A0000020F5E70220704798B108B50346D0F832
:1032B0008C0210B10020C3F88C0209B1C3F8881247
:1032C0001846012380F87432027000F0E1FF0020FC
:1032D00008BD0220704719B1C0F88C120020704759
:1032E0000220704708B501F060F8002008BD08B55D
:1032F000D0F88C3233B11B68984708B9002008BD5C
:103300000220FCE70220FAE708B5D0F88C325B68AF
:103310009847002008BD38B5044600F520752846BA
:1033200000F047F90123C4F86C32B4F88632C4F8CF
:10333000703294F8801201F01F03012B0ED03BB1C4
:10334000022B10D001F08001204601F049F803E083
:103350002946204600F0C5FA002038BD29462046FF
:1033600000F0F3FAF8E72946204600F01EFBF3E7E9
:1033700038B50446A1BB1046D4F86C32032B03D0F9
:10338000052B24D0002037E0D4F84C31D4F850215C
:1033900093420DD99B1AC4F84C319A4206D99AB27D
:1033A0000146204600F05FFC002025E092B2F7E7DE
:1033B000D4F88C321B692BB194F87422032A01D102
:1033C00020469847204600F056FC002014E00025D7
:1033D000C4F86C522946204601F002F828460BE05A
:1033E0000A46D0F88C329B693BB190F874120329DD
:1033F00005D111469847002038BD0220FCE7022085
:10340000FAE710B50446002955D11046D4F86C32BD
:10341000022B09D0002B18BF042B43D094F878322C
:10342000012B44D0002052E0236A626A93421DD8E7
:10343000E169B1FBF2F302FB13132BB98A4203D803
:10344000D4F8703299421FD3D4F88C32DB682BB198
:1034500094F87422032A01D12046984780212046FF
:1034600000F0BEFF204600F011FCD7E79A1A226256
:1034700092B20146204600F0DFFB00231A461946AF
:10348000204600F0CDFFC9E700221146204600F09B
:10349000D3FB0021C4F870120B460A46204600F008
:1034A000BFFFBBE78021204600F09AFFB6E700206F
:1034B00084F878020BE00A46D0F88C325B693BB1A5
:1034C00090F87412032905D111469847002010BDC9
:1034D0000220FCE70220FAE770B5044640230022F0
:1034E000114600F06AFF0125C4F844514026C4F893
:1034F0005061334600228021204600F05EFFA56126
:10350000666284F874520023C4F86C326360C4F8B5
:103510007C32D4F890322BB1D4F88C325B68002125
:1035200020469847002070BD01740020704790F835
:10353000743280F87532042380F8743200207047AA
:1035400090F8753280F874320020704708B590F812
:103550007432032B01D0002008BDD0F88C32DB6917
:10356000002BF8D09847F6E70020704700207047FE
:103570000020704708B5012280F87422D0F88C2210
:10358000526801799047002008BD002302E0013312
:10359000DBB201300278002AF9D11846704708B52D
:1035A0004B88012B00D008BDC0F87C3200F063FBD3
:1035B000F9E70B7803704B7843708B78CA7803EB8C
:1035C000022343800B794A7903EB022383808B79B2
:1035D000CA7903EB0223C380704710B504468021EB
:1035E00000F0FEFE0021204600F0FAFE10BD30B5CE
:1035F00083B005460C464A88130A013B0E2B00F2A5
:103600009180DFE803F01B23378F8F73808F8F8FBC
:103610008F8F8F8F0800D0F88832DB690DF106019B
:10362000007C9847BDF8062012B1E388002B7DD1BD
:10363000E388002B00F0848003B030BDD0F88832DE
:103640001B680DF10601007C9847EBE7037C43B94A
:10365000D0F88C329B6A0DF1060098470223437024
:10366000E0E7D0F88C32DB6A0DF1060098470223C0
:103670004370D7E7D2B2052A34D8DFE802F0030B53
:10368000131B232BD0F888325B680DF10601007CF8
:103690009847C7E7D0F888329B680DF10601007C97
:1036A0009847BFE7D0F88832DB680DF10601007C4F
:1036B0009847B7E7D0F888321B690DF10601007C06
:1036C0009847AFE7D0F888325B690DF10601007CBE
:1036D0009847A7E7D0F888329B690DF10601007C76
:1036E00098479FE72146FFF778FFA5E7037C33B9AA
:1036F000D0F88C325B6B0DF10600984792E72146BB
:10370000FFF76BFF98E7037C43B9D0F88C321B6B53
:103710000DF1060098470723437083E72146FFF722
:103720005CFF89E72146FFF758FF85E79A4228BFEB
:103730001A46ADF806200146284600F070FA77E7F1
:10374000284600F098FA77E738B504468B88F3B935
:10375000CB88E3B94B887F2B19D803F07F0590F80D
:103760007432032B0CD080F87652294600F048FEC4
:10377000204600F080FA35B1022384F8743209E063
:10378000FFF72BFF06E0012384F8743202E02046A5
:10379000FFF723FF38BD000038B504460D46897891
:1037A000284B197001290ED890F87432022B0ED0D4
:1037B000032B21D02946FFF710FF224B1978204612
:1037C000FFF7A2FD02E02946FFF707FF38BD81B1F0
:1037D0004160032380F87432FFF789FD022803D08B
:1037E000204600F048FAF1E729462046FFF7F5FEAB
:1037F000ECE700F040FAE9E789B1436899421DD04F
:10380000D9B2FFF781FD0F4B197861602046FFF7B1
:103810006EFD02280DD0204600F02DFAD6E70223D7
:1038200080F874324160FFF76FFD204600F023FA04
:10383000CCE729462046FFF7D0FEC7E700F01BFA89
:10384000C4E700BF0C02002008B5CB88012B0BD1C8
:1038500090F874329BB1022B09D9032B0FD10122AE
:10386000011D00F0DCF901E0FFF7B7FE08BD0146DD
:10387000002341F8083F012200F0D1F9F6E7FFF7F5
:10388000ACFEF3E708B590F87432013B022B12D876
:10389000CB88022B0CD10123C360D0F87C320BB152
:1038A0000323C360022200F10C0100F0B8F908BD47
:1038B000FFF793FEFBE7FFF790FEF8E708B590F8F7
:1038C0007432013B022B09D84B88012B00D008BD74
:1038D0000023C0F87C3200F0CEF9F8E7FFF77DFE58
:1038E000F5E708B50B7803F06003202B05D0402BDB
:1038F00003D043B1FFF771FE03E0D0F88C329B6830
:103900009847002008BD4B78092B1BD8DFE803F04F
:1039100011171A141A08051A0E0BFFF768FEF0E7C4
:10392000FFF712FFEDE7FFF737FFEAE7FFF78CFF3E
:10393000E7E7FFF7A7FFE4E7FFF731FEE1E7FFF76F
:10394000BDFFDEE7FFF749FEDBE738B505460C466D
:103950000B7803F06003202B06D0402B04D01BB162
:10396000FFF73BFE002038BD95F87432013B022B77
:1039700016D82379012B0ED8D5F88C329B682146B6
:1039800028469847E388002BECD10028EAD1284646
:1039900000F071F9E6E721462846FFF71EFEE1E751
:1039A00021462846FFF719FEDCE738B504468A8829
:1039B0000B7803F06003202B08D0D0B2402B05D049
:1039C0005BB12046FFF709FE002005E0D4F88C32F9
:1039D0009B6820469847002038BD202B05D1D4F89D
:1039E0008C329B6820469847F6E74B78012B3CD0F9
:1039F000002B6DD0032B40F0EF8094F87432022B33
:103A000006D0032B1BD02046FFF7E7FD0020E3E79D
:103A1000B0F1800318BF0123002808BF00234BB179
:103A20000146204600F0DCFC8021204600F0D8FC56
:103A30000020D1E72046FFF7D0FD0020CCE74B88DF
:103A40004BB9B0F1800318BF0123002808BF002341
:103A50000BB1CB8823B1204600F00DF90020BBE765
:103A60000146204600F0BCFCF5E794F87432022BC6
:103A700006D0032B1BD02046FFF7AFFD0020ABE79D
:103A8000B0F1800318BF0123002808BF00234BB109
:103A90000146204600F0A4FC8021204600F0A0FC56
:103AA000002099E72046FFF798FD002094E74B8817
:103AB000002B40F0968010F07F0F04D1204600F0DC
:103AC000DAF8002088E70146204600F091FCF5E78F
:103AD00094F87432022B06D0032B2ED02046FFF729
:103AE0007CFD002078E7B0F1800318BF0123002897
:103AF00008BF002393B912F0800F14D100F07F00AB
:103B000000EB8000830003F5A073E11800250D6031
:103B10000222204600F083F828465DE72046FFF7A2
:103B20005CFD002058E700F07F0000EB8000830080
:103B300003F1100121440431E8E752B2002A23DBEB
:103B400000F00F0303EB83039D002544D5F84431B7
:103B500043B3002A2BDB00F07F0202EB82029300CA
:103B600003F5A073E518802814BF00230123002863
:103B700008BF01232BB300232B60022229462046D5
:103B800000F04DF8002027E700F00F0303EB83035C
:103B90009D002544AB69002BDBD12046FFF71DFDBE
:103BA000002019E72046FFF718FD002014E700F079
:103BB0007F0202EB8202930003F1100525440435D5
:103BC000D1E70146204600F097FB10B101232B609E
:103BD000D3E700232B60D0E72046FFF7FEFC002050
:103BE000FAE60020F8E6C8B170B50D461646044660
:103BF000FFF7CBFC013040003080287003236B704E
:103C0000022307E001345A1CD2B2E9540233DBB27A
:103C10000021A95421780029F4D170BD704710B556
:103C200013460222C0F86C22C36103620A460021D7
:103C300000F0EEFB002010BD08B513460A46002137
:103C400000F0E6FB002008BD10B513460322C0F8C3
:103C50006C22C0F84831C0F84C310A46002100F00F
:103C6000DFFB002010BD08B513460A46002100F016
:103C7000D7FB002008BD08B50423C0F86C32002330
:103C80001A46194600F0C4FB002008BD08B50523FC
:103C9000C0F86C3200231A46194600F0C1FB002020
:103CA00008BD0000F0B58DB0002407940894099475
:103CB0000A940B94354B1A6B42F004021A631A6B88
:103CC00002F004020192019A1A6B42F080021A6318
:103CD0001A6B02F080020292029A1A6B42F0020200
:103CE0001A631A6B02F002020392039A1A6B42F0F3
:103CF00008021A631A6B02F008020492049A1A6B03
:103D000042F040021A631A6B02F040020592059AD3
:103D10001A6B42F001021A631B6B03F00103069356
:103D2000069B1B4F224644F281013846FCF79AFD60
:103D3000184D224640212846FCF794FD4FF40053CD
:103D40000793154B0893099407A91448FCF7A6FCA0
:103D500044F2810307930126089609940A9407A95F
:103D60003846FCF79BFC40230793089609940A9475
:103D700007A92846FCF792FC80230793089409942E
:103D800007A92846FCF78AFC0DB0F0BD00380240B8
:103D90000004024000180240000011100008024018
:103DA00008B50948094B03604FF4E1334360002331
:103DB0008360C36003610C2242618361C36103625B
:103DC0004362FEF782FB08BD2C0200200048004041
:103DD000074A11684B1CDBB252689A4205D0054A6B
:103DE0005054034A1360012070470020704700BF01
:103DF00010020020AC02002010B4084A5368146876
:103E00000020A34207D0064AD15C064A1154013370
:103E1000DBB20130F5E75DF8044B7047100200207B
:103E2000AC020020AC03002030B5B5B03022002138
:103E300028A800F0F9FB00242394249425942694C8
:103E400027948022214603A800F0EEFBFDF7E6FA56
:103E5000204B1A6C42F080521A641B6C03F08053A2
:103E60000193019B1C4B1A6842F440421A601B6884
:103E700003F440430293029B012328934FF4A023B1
:103E8000299302252E954FF480032F93042330931A
:103E9000D823319332950923339328A8FDF704FBE7
:103EA000FDF7C4FA0F232393249525944FF4A053D0
:103EB00026934FF480532793072123A8FDF74AFD4B
:103EC000064B03931494209403A8FDF71BFE35B012
:103ED00030BD00BF003802400070004000012000EB
:103EE00008B5FCF741FBFFF79FFFFFF7DBFEFFF78D
:103EF00057FF00F0ADF8FFF77FFFFCE770470000C9
:103F000082B00A4B1A6C42F080521A641A6C02F0AA
:103F100080520092009A5A6C42F480425A645B6C60
:103F200003F480430193019B02B0704700380240C4
:103F300000B589B000230393049305930693079378
:103F40000268144B9A4202D009B05DF804FB03F5F5
:103F5000F8331A6C42F480221A641A6C02F480223C
:103F60000192019A1A6B42F008021A631B6B03F06C
:103F700008030293029B4FF44073039302230493BC
:103F8000032306930723079303A90348FCF786FB43
:103F9000DAE700BF00480040000C02407047FEE72F
:103FA000FEE7FEE7FEE770477047704708B5FCF78D
:103FB000E7FA08BD08B50248FCF71CFE08BD00BFC3
:103FC0004817002008B503460B4A126842B10A4A56
:103FD000106803446A46934206D8074A136008BD36
:103FE000054A06491160F2E700F0E4FA0C23036089
:103FF0004FF0FF30F3E700BF18020020501D0020F3
:1040000010B40F4AD2F8883043F47003C2F88830F5
:104010000C4B196841F001011960002098601C6880
:1040200009492140196009495960196821F4802122
:104030001960D8604FF0006393605DF8044B7047DF
:1040400000ED00E000380240FFFFF6FE10300024D3
:1040500008B500220F491048FFF726F970B90F493B
:104060000D48FFF738F960B90D490B48FFF7EEF836
:1040700050B90948FFF736F948B908BDFFF73EFFC8
:10408000EDE7FFF73BFFEFE7FFF738FFF1E7FFF75B
:1040900035FFF2E76C010020AC040020E0000020B6
:1040A0001C010020002070470020704770B50546B5
:1040B0000E46094C01462046FFF7D7F82046FFF789
:1040C000DAF8002403E0285DFFF782FE013433684C
:1040D000A342F8D8002070BDAC04002010B5064CF7
:1040E000002206492046FFF7B8F805492046FFF7A9
:1040F000BCF8002010BD00BFAC040020480F002019
:104100004807002008B5FFF78FFE08BD70B588B0DE
:104110000023039304930593069307930368B3F175
:10412000A04F01D008B070BD1E4C236B43F00103BB
:104130002363236B03F001030093009B4FF4E853C8
:10414000039302230493032306930A230793164E33
:1041500003A93046FCF7A2FA4FF40073039300253D
:104160000495059503A93046FCF798FA636B43F074
:1041700080036363636B03F080030193019B636CB3
:1041800043F480436364636C03F480430293029BB3
:104190002A4629464320FCF72BFA4320FCF75AFA1B
:1041A000C0E700BF003802400000024008B500F53B
:1041B0007171D0F80004FFF7AEF808BD08B5C1EB87
:1041C000C10293000344D3F80822D0F80004FFF79B
:1041D000CFF808BD08B5C1EBC102930003449A6C47
:1041E000D0F80004FFF70DF908BD08B5D0F80004B9
:1041F000FFF7ACF908BD10B50446C3682BB1022B1C
:104200000DD0FFF77BFE012100E00021D4F800046F
:10421000FFF78AF9D4F80004FFF75EF910BD012119
:10422000F4E7000010B50446D0F80004FFF77FF96A
:104230002268D2F8003E43F00103C2F8003E236A30
:1042400023B1034A136943F00603136110BD00BF95
:1042500000ED00E008B5D0F80004FFF771F908BDE3
:1042600008B5D0F80004FFF781F908BD08B5D0F80B
:104270000004FFF779F908BD08B5D0F80004FFF78E
:1042800077F908BD08B5D0F80004FFF773F908BD49
:1042900003780BB10020704710B503461548C0F8ED
:1042A0000034C3F898024FF0A04303600623436034
:1042B00000230361022282610122C2610362436220
:1042C0008262C2620363FCF73DFB80B9094C802126
:1042D0002046FDF78AF8402200212046FDF761F8CC
:1042E000802201212046FDF75CF8002010BDFFF779
:1042F00005FEEBE748170020D0F8983211F0800F48
:1043000008D101F07F01C1EBC1018A00134493F889
:10431000FE01704701F07F01C1EBC1018A00134427
:1043200093F83E00704708B5D0F89802FCF78EFF6E
:1043300008BD000010B5044611B1012916D010BD0A
:10434000036A5BB92268D2F8003E23F00103C2F889
:10435000003ED4F80004FFF7F3F8F0E7FFF7D2FED1
:104360000C4A136923F006031361EBE70268D2F8E5
:10437000003E43F00103C2F8003ED0F80004FFF70E
:10438000D6F8236A002BDAD0024A136943F00603F9
:104390001361D4E700ED00E018B1022803D0022039
:1043A0007047002070470120704708B5D0F8980288
:1043B000FCF759FBFFF7F0FF08BD10B51C4613468C
:1043C0002246D0F89802FCF79BFEFFF7E5FF10BDF0
:1043D00008B5D0F89802FCF7D4FEFFF7DDFF08BD62
:1043E00008B5D0F89802FCF764FFFFF7D5FF08BDC9
:1043F00008B5D0F89802FCF79DFFFFF7CDFF08BD88
:1044000008B5D0F89802FCF767FEFFF7C5FF08BDB6
:1044100008B5D0F89802FCF722FFFFF7BDFF08BDF2
:1044200008B5D0F89802FCF7E3FEFFF7B5FF08BD2A
:1044300012230B80004870472C01002004230B80BE
:1044400000487047400100200C230B800048704753
:10445000440100200023934216D230B40BE03734DD
:1044600001F8134000015C00013400250D550133B3
:10447000DBB2934206D2040F092CF0D8303401F895
:104480001340EFE730BC70477047000038B50B4B66
:10449000186804331C6804331B68C01800D138BD89
:1044A000074D082205F12601FFF7D4FF042205F18C
:1044B00036012046FFF7CEFFF1E700BF107AF01F6C
:1044C0002C01002008B51A230B80FFF7DFFF0148FD
:1044D00008BD00BF5001002008B50A4628B10549B3
:1044E0000548FFF780FB034808BD02490248FFF773
:1044F0007AFBF8E74C1B0020DC47000810B5044CA1
:104500000A4621460348FFF76EFB204610BD00BF58
:104510004C1B0020F447000808B50A4628B105499D
:104520000548FFF760FB034808BD02490248FFF752
:104530005AFBF8E74C1B00200848000808B50A465B
:1045400028B105490548FFF74EFB034808BD02495D
:104550000248FFF748FBF8E74C1B0020144800080E
:10456000DFF834D0002103E00C4B5B58435004319A
:104570000B480C4B42189A42F6D30B4A02E0002338
:1045800042F8043B094B9A42F9D3FFF739FD00F09A
:1045900017F8FFF7A5FC7047000004203448000816
:1045A00000000020F0010020F0010020501D00203C
:1045B000FEE70000014B1868704700BF8C01002027
:1045C00070B50D4E0D4CA41BA4100025A54209D1B9
:1045D0000B4E0C4C00F0EAF8A41BA4100025A542D9
:1045E00005D170BD56F8253098470135EEE756F8ED
:1045F000253098470135F2E72C4800082C48000880
:104600002C48000830480008024B0146186800F0AA
:1046100061B800BF8C010020024B0146186800F011
:104620000BB800BF8C01002002440346934200D126
:10463000704703F8011BF9E738B50546002945D056
:1046400051F8043C0C1F002BB8BFE41800F0ACF884
:104650001F4A1368104633B9636014602846BDE8EA
:10466000384000F0A2B8A3420CD9216862189342E6
:1046700004BF1A685B68636004BF5218226004605C
:10468000ECE713465A680AB1A242FAD919685818D9
:10469000A0420BD120680144581882421960DDD134
:1046A000106852685A6001441960D7E702D90C2398
:1046B0002B60D3E7206821188A4204BF1168526832
:1046C000626004BF091821605C60C7E738BD00BFA5
:1046D0002002002070B5CD1C25F0030508350C2DF7
:1046E00038BF0C25002D064601DBA94203D90C2357
:1046F0003360002070BD00F057F8214A146821464D
:1047000091B9204C23681BB9304600F03DF8206079
:104710002946304600F038F8431C24D10C2333607E
:10472000304600F042F8E4E70B685B1B18D40B2B13
:104730000FD90B60CD50CC18304600F036F804F19C
:104740000B00231D20F00700C31AD3D05A42E250B9
:10475000D0E78C424B6816BF636013600C46EBE7F2
:104760000C464968CCE7C41C24F00304A04205D0E1
:10477000211A304600F008F80130CFD02560DBE781
:10478000200200202402002038B5064C00230546F4
:1047900008462360FFF716FC431C02D1236803B1CF
:1047A0002B6038BD4C1D002070477047F8B500BF26
:1047B000F8BC08BC9E467047F8B500BFF8BC08BC02
:0447C0009E4670475A
:1047C40000000000000000000102030406070809BD
:1047D400000000000102030453544D333220566993
:1047E400727475616C20436F6D506F7274000000B9
:1047F40053544D6963726F656C656374726F6E694F
:104804006373000043444320436F6E66696700008E
:1048140043444320496E7465726661636500000019
:084824002CBAFF7F0100000027
:04482C000502000879
:04483000E10100089A
:10483400010000001000000009024300020100C052
:1048440032090400000102020100052400100105E0
:104854002401000104240202052406000107058244
:104864000308001009040100020A00000007050102
:1048740002400000070581024000000009024300D5
:10488400020100C0320904000001020201000524F3
:10489400001001052401000104240202052406007D
:1048A400010705820308001009040100020A000040
:1048B4000007050102000200070581020002000052
:1048C40009074300020104C0320904000001020286
:1048D4000100052400100105240100010424020242
:1048E40005240600010705820308001009040100DD
:1048F400020A0000000705010240000007058102CA
:10490400400000000A060002000000400100000010
:10491400A33100086131000887300008000000005E
:10492400B12F0008373000080930000800000000EB
:104934000000000000000000E52F0008D92F000847
:10494400F12F0008FD2F00080024F400DD400008CA
:10495400A5400008A9400008AD400008120101026A
:1049640002020040830440570002010203010000D8
:1049740004030904050F0C000107100202000000E3
:104984001A03000000000000000000000000000006
:104994000000000000000000000000003144000896
:1049A4003D440008FD440008D9440008C5440008FB
:1049B400194500083D4500084944000890010020BD
:1049C40000000000000000000000000000000000E3
:1049D40000000000000000000000000000000000D3
:1049E40000000000000000000000000000000000C3
:1049F40000000000000000000000000000000000B3
:104A040000000000000000000000000000000000A2
:104A14000000000000000000000000000000000092
:040000050800456149
:00000001FF
